:10188A00120003120F9D1218721218C3E4F5E8121F
:07189A0013E512104D80F868
:10120400E4F50CF50D75E80FE5E8640F606F12194D
:101214000DE5E8640F606675E80FAFE8EF24F5604C
:101224001024FE601114601324077012750B0180E2
:101234000D750B028008750B038003750B0475E8AC
:10124400F0AFE8EF2450601124E0601124F0601145
:1012540024707013850B0B800E7404800674088050
:1012640002740C250BF50BC3E50C648094B2500D8D
:0F127400E5E864F0600712190D050D80EAAF0B75
:011283002248
:10000E000000000000000000002F000000000700AC
:10001E00070000147F147F1400242A7F2A12006226
:10002E0064081323003649552250000005030000D2
:10003E0000001C224100000041221C000014083E5A
:10004E0008140008083E0808000000A06000000820
:10005E000808080800006060000000201008040274
:10006E00003E5149453E0000427F40000042615132
:10007E004946002141454B31001814127F100027CC
:10008E0045454539003C4A4949300001710905038F
:10009E0000364949493600064949291E00003636C0
:1000AE000000000056360000000814224100001423
:1000BE001414141400004122140800020151090600
:1000CE0000324959513E007C1211127C007F494981
:1000DE004936003E41414122007F4141221C007FB2
:1000EE0049494941007F09090901003E4149497AC0
:1000FE00007F0808087F0000417F4100002040413A
:10010E003F01007F08142241007F40404040007FA5
:10011E00020C027F007F0408107F003E4141413EE9
:10012E00007F09090906003E4151215E007F091931
:10013E0029460046494949310001017F0101003F2E
:10014E004040403F001F2040201F003F4038403FAE
:10015E000063140814630007087008070061514912
:10016E00454300007F41410000552A552A550000A5
:10017E0041417F0000040201020400404040404023
:10018E00000001020400002054545478007F4844BB
:10019E00443800384444442000384444487F0038F2
:1001AE005454541800087E0901020018A4A4A47C1B
:1001BE00007F080404780000447D400000408084E5
:1001CE007D00007F102844000000417F4000007C2D
:1001DE0004180478007C0804047800384444443839
:1001EE0000FC242424180018242418FC007C080485
:1001FE00040800485454542000043F444020003C5E
:10020E004040207C001C2040201C003C4030403CE4
:10021E00004428102844001CA0A0A07C0044645474
:10022E004C441414141414140000000000000000B8
:10023E000000000000000000000000F800000000B8
:10024E00000000333000000000100C06100C0600F9
:10025E00000000000000000040C07840C078400060
:10026E00043F04043F040400007088FC08300000C2
:10027E00001820FF211E0000F008F000E01800001A
:10028E0000211C031E211E0000F0088870000000D3
:10029E001E2123241927211010160E000000000025
:1002AE000000000000000000000000E01804020042
:1002BE00000000071820400000020418E0000000B3
:1002CE000040201807000000404080F080404000B1
:1002DE000202010F01020200000000F00000000007
:1002EE000101011F010101000000000000000000DB
:1002FE0080B0700000000000000000000000000050
:10030E0000010101010101010000000000000000D8
:10031E000030300000000000000000008060180473
:10032E00006018060100000000E010080810E00050
:10033E00000F102020100F00001010F80000000019
:10034E000020203F20200000007008080888700060
:10035E0000302824222130000030088888483000E0
:10036E000018202020110E000000C02010F8000000
:10037E0000070424243F240000F808888808080099
:10038E000019212020110E0000E0108888180000AE
:10039E00000F112020110E0000380808C838080080
:1003AE000000003F00000000007088080888700000
:1003BE00001C222121221C0000E010080810E00081
:1003CE000000312222110F00000000C0C00000000A
:1003DE00000000303000000000000080000000002F
:1003EE000000806000000000000080402010080027
:1003FE0000010204081020004040404040404000F0
:10040E0004040404040404000008102040800000CA
:10041E000020100804020100007048080808F000CF
:10042E000000003036010000C030C828E810E0009F
:10043E000718272423140B000000C038E00000002A
:10044E00203C23020227382008F888888870000094
:10045E00203F202020110E00C03008080808380068
:10046E00071820202010080008F808080810E000DF
:10047E00203F202020100F0008F88888E808100080
:10048E00203F20202320180008F88888E808100054
:10049E00203F200003000000C0300808083800008C
:1004AE0007182020221E020008F808000008F8088D
:1004BE00203F210101213F20000808F80808000014
:1004CE000020203F2020000000000808F808080047
:1004DE00C08080807F00000008F888C028180800BF
:1004EE00203F20012638200008F8080000000000F8
:1004FE00203F20202020300008F8F800F8F80800EF
:10050E00203F003F003F200008F830C00008F808E8
:10051E00203F200007183F00E01008080810E000F8
:10052E000F10202020100F0008F808080808F0000F
:10053E00203F210101010000E01008080810E00032
:10054E000F18242438504F0008F8888888887000C7
:10055E00203F2000030C3020007088080808380067
:10056E000038202121221C00180808F8080818005D
:10057E000000203F2000000008F808000008F808DE
:10058E00001F202020201F000878880000C838088F
:10059E00000007380E010000F80800F80008F80007
:1005AE00033C0700073C03000818688080681808A1
:1005BE0020302C03032C30200838C800C83808001F
:1005CE000000203F2000000010080808C83808006E
:1005DE002038262120201800000000FE0202020012
:1005EE000000007F40404000000C30C000000000C2
:1005FE00000000010638C00000020202FE000000EA
:10060E00004040407F00000000000402020204008F
:10061E0000000000000000000000000000000000CC
:10062E0080808080808080800002020400000000B4
:10063E0000000000000000000000808080800000AC
:10064E000019242222223F2008F80080800000009A
:10065E00003F112020110E0000000080808000005D
:10066E00000E112020201100000000808088F8006C
:10067E00000E112020103F2000008080808000009E
:10068E00001F222222221300008080F08888881802
:10069E000020203F2020000000008080808080000D
:1006AE00006B94949493600008F8008080800000A2
:1006BE00203F210000203F2000809898000000007D
:1006CE000020203F202000000000008098980000AD
:1006DE0000C08080807F000008F8000080808000CD
:1006EE00203F24022D302000000808F800000000F2
:1006FE000020203F202000008080808080808000AD
:10070E00203F20003F20003F80800080808000003E
:10071E00203F210000203F200000808080800000CC
:10072E00001F202020201F008080008080000000FD
:10073E0080FFA12020110E0000000080808080002C
:10074E00000E112020A0FF8080808000808080001D
:10075E0020203F212000010000008080808080004A
:10076E000033242424241900008080E080800000BF
:10077E000000001F2020000080800000008080000C
:10078E00001F202020103F2080808000008080806D
:10079E0000010E30080601008080008000808080FD
:1007AE000F300C030C300F00008080008080800022
:1007BE000020312E0E31200080808000008080804D
:1007CE0080818E70180601000080808080808000FD
:1007DE000021302C2221300000000000807C02021B
:1007EE0000000000003F404000000000FF0000003D
:1007FE0000000000FF0000000002027C80000000EC
:10080E000040403F00000000000601010202040407
:10081E000000000000000000109453321E325210EF
:10082E00007E4242427E00000000000000000000F8
:10083E000000000000000000000000FF4949494987
:10084E00494949FF000000000000000000000000C0
:10085E00000000000000000008CC4A49484ACC18AD
:10086E00007F88888482E000000000000000000005
:10087E00000000000000000000FF121252927F00E4
:10088E00007E88888482E0000000000000000000E6
:10089E00000000000000000000FC8484FC0004E462
:1008AE002425262424E4040000000000000000009B
:1008BE000000000000000000003F10103F00201359
:1008CE004A827E020A132000000000000000000091
:1008DE0000000000000000000808080808C839CE13
:1008EE000808080888080800000000000000000042
:1008FE00000000000000000010080402FF4020006D
:10090E0003040A1120404000000000000000000017
:10091E000000000000000000008444340F44847C7A
:10092E00007C4444447C00000000000000000000F5
:10093E00000000000000000044442424140C04FFB6
:10094E00040C1424244444000000000000000000A5
:10095E0000000000000000002030AC631000FE48D4
:10096E005040FF4050480000000000000000000012
:10097E0000000000000000002267221212007F44D7
:10098E0042417F4142444000000000000000000050
:10099E0000000000000000002030AC63201820246E
:1009AE00A4243FA424A46000000000000000000066
:1009BE000000000000000000226722121212888A36
:1009CE004C29180F1828C800000000000000000075
:1009DE0000000000000000001060028C0000FE927B
:1009EE0092929292FE0000000000000000000000B3
:1009FE00000000000000000004047E01407E424220
:100A0E007E427E42427E4000000000000000000058
:100A1E0000000000000000001060028C00FE9292A8
:100A2E0092929292FE000000000000000000000072
:100A3E00000000000000000004047E014448507FC6
:100A4E0040407F504844400000000000000000007D
:100A5E0000000000000000000000FC242424FC25FF
:100A6E002624FC24242404000000000000000000C2
:100A7E00000000000000000040308F80844C55259F
:100A8E002525554C808080000000000000000000ED
:100A9E000000000000000000101010FF9020988849
:100AAE0088E98E8888A898000000000000000000E9
:100ABE0000000000000000000242817F00008084E0
:100ACE004B281028478000000000000000000000A6
:100ADE00000000000000000000FC0000FF004020AD
:100AEE00D8171010F01010000000000000000000D9
:100AFE000000000000000000000F0402FF00804014
:100B0E0021160816214080000000000000000000A1
:100B1E00000000000000000000007C40404040FF4C
:100B2E0040404040FC0000000000000000000000BB
:100B3E000000000000000000007C40404040407F6C
:100B4E004040404040FC000000000000000000005B
:100B5E000000000000000000404042CC0000FC24D9
:100B6E00A4242222A3620000000000000000000066
:100B7E0000000000000000000040201F20584750D9
:100B8E00484542454850400000000000000000006B
:100B9E0000000000000000000000FE0202F212122F
:100BAE0012F20202FE000000000000000000000031
:100BBE00000000000000000000007F2020272424F9
:100BCE00242720207F00000000000000000000000D
:100BDE000000000000000000000000FE8282828201
:100BEE00828282FE00000000000000000000000073
:100BFE000000000000000000000000FF40404040E8
:100C0E00404040FF00000000000000000000000017
:100C1E0000000000000000000004FF242424FF0454
:100C2E0000FE222222FE0000000000000000000054
:100C3E00000000000000000088482F090919AF4885
:100C4E00300F0242827F0000000000000000000012
:100C5E00000000000000000000FC0000FF0040202B
:100C6E00D8171010F0101000000000000000000057
:100C7E000000000000000000000F0402FF00804092
:100C8E002116081621408000000000000000000020
:100C9E00000000000000000000007C40404040FFCB
:100CAE0040404040FC00000000000000000000003A
:100CBE000000000000000000007C40404040407FEB
:100CCE004040404040FC00000000000000000000DA
:080CDE0000000000000000000E
:10184000EF4E60157D087C07ED1DAA0470011C4A4F
:0918500070F6EF1F70EA1E80E73C
:01185900226C
:10171D00F583E5822CF582E43583F583E493FF7D33
:01172D0001BA
:10172E00ED6004D2FB8002C2FBC2CAE4FEC2F8EF37
:10173E0030E704D2F98002C2F9D2F8EF25E0FF0EAD
:07174E00BE08EAD2CAD2FB7B
:011755002271
:10178F00ED6004D2FB8002C2FBC2CAE4FEC2F8EFD6
:10179F0030E704C2F98002D2F9D2F8EF25E0FF0E4C
:0717AF00BE08EAD2CAD2FB1A
:0117B6002210
:10180200AC07ED24B0FFE4FD12172EEC54F0C454E3
:101812000F4410FF12172EEC540F4401FF02172E33
:1018A100E4FD7F8D12172E7F1412172E7FAF0217C2
:0118B1002E08
:1018B200E4FD7F8D12172E7F1012172E7FAE0217B6
:0118C2002EF7
:1017B700E4FCEC24B0FFE4FD12172EE4FF12172E11
:1017C7007F1012172EE4FB7D01E4FF12172E0BBBCF
:0617D70080F50CBC08DCEB
:0117DD0022E9
:06153200AA07A905AF03A2
:10153800E4FCEF24E0FBEAD3947F4004E4FA0909D1
:10154800AF02AD01121802E4FC75F010EBA42CF503
:1015580082E435F0F583E5822436F582E5833402AA
:101568001217270CBC08E2AF02E904FD121802E4C6
:10157800FC75F010EBA42CF582E435F0F583E582D8
:10158800243EF582E58334021217270CBC08E222B8
:04185A008F15A90538
:10185E007F017E00AD0119ED6009AD157C001211FE
:03186E001180F1F5
:011871002254
:081371008F0C8D0D8A0E8B0F0D
:10137900E4F514F512E512C39510505FC3E5109515
:101389001214FD7F0A12185AAC0EAD0FCFCDCFCE75
:10139900CCCE1211237C007D0A1211238D13E51482
:1013A9007020E51014FFE512C39F5016E513700F66
:1013B900E511C3138512F0A4250CFF7B208013755A
:1013C9001401E511C3138512F0A4250CFFE51324BC
:0B13D90030FBAD0D1215320512809A9A
:0113E40022E6
:0A16A3008F0C8D0D8B0E8A0F89103D
:1016AD00E4F511AB0EAA0FA91085118275830012F6
:1016BD0010E4FB601DAD0DAF0C1215327408250C36
:1016CD00F50CD394784007E4F50C050D050D0511C7
:0216DD0080D1BA
:0116DF0022E8
:04166000AA07A90527
:10166400E4F50C121802E4FC75F040EBA42426F512
:1016740082E5F0340812171D050C0CBC10EAAF0209
:10168400E904FD121802E4FC75F040EBA42446F5CD
:0E16940082E5F0340812171D050C0CBC10EA9C
:0116A2002225
:0415FE008F168B18A1
:10160200E4F51DF51EE5195407700BE519131313C4
:10161200541FF51F800AE519131313541F04F51FF5
:101622008D1FE51FC395195034AD1FAF1612180256
:10163200AC16ECC395185021AB1AAA1BA91C051EA7
:10164200E51EAE1D7002051D14F5828E831210E494
:0D165200FF7D0112172E0C80D9051F80C5E9
:01165F002268
:100F9D00D2FA7F647E00121840C2FA7F647E00127E
:100FAD001840D2FAE4FD7FAE12172EE4FF12172E71
:100FBD007F1012172E7F4012172E7F8112172E7F52
:100FCD00CF12172E7FA112172E7FC812172E7FA6B4
:100FDD0012172E7FA812172E7F3F12172E7FD312B6
:100FED00172EE4FF12172E7FD512172E7F801217A2
:100FFD002E7FD912172E7FF112172E7FDA12172E90
:10100D007F1212172E7FDB12172E7F4012172E7FA5
:10101D002012172E7F0212172E7F8D12172E7F147E
:10102D0012172E7FA412172E7FA612172E7FAF1226
:10103D00172E7FAF12172E1217B7E4FDFF021802FD
:101756004265696E672072656365697665642E2EDB
:10176600007265636569766564206661696C6564A7
:101776000074727920616761696E2E2E002E0073E7
:091786007563636573736564000B
:0C18DF007F857E147D28DDFEDEFADFF63A
:0118EB0022DA
:04191C007FA3DFFEC8
:0119200022A4
:1016E000E4FE752A02208207AF2A052AEF70F6125F
:1016F000191CE4F52F30C003752F01752A0230C084
:1017000007AF2A052AEF70F6E52A6401600EE53A74
:0C17100025E0F53AE52F423A0EBE08C66F
:01171C0022AA
:1012FB00C2C01218DFD2C012191CD2C020C0567542
:10130B002A0220C007AF2A052AEF70F6752A023091
:10131B00C007AF2A052AEF70F61216E0853A37128E
:10132B0016E0853A381216E0853A241216E0853A13
:10133B00251216E0853A2ED2C0E524252525372522
:10134B0038F52FB52E0F853730853831852422851A
:10135B002523852E2CE5306009E52260057E007F74
:06136B000122E4FEFF2256
:070003001217B775974022A8
:100CE600E4F50B1212FB1212FBEF64014E6018E5DD
:100CF6000BD394645011050B7BFF7A1779567D044C
:100D0600E4FF1216A380DFE50BD39464403E12176E
:100D1600B77BFF7A1779677D02E4FF1216A31218D4
:100D2600D11218D11218D11218D11217B77BFF7A27
:100D36001779777D02E4FF1216A31218D11218D183
:100D46001218D11218D11217B77F0222E4F50B122E
:100D560017B77B08E4FDFF1216607B09E4FD7F10E0
:100D6600121660E530FB7A00751002751110E4FD6D
:100D76007F401213717BFF7A177983E4FD7F50124F
:100D860016A3E531FB7A00751002751110E4FD7F9C
:100D9600601213717B077D02E4FF1216607B097DEA
:100DA600027F10121660E522FB7A0075100275119B
:100DB600107D027F401213717BFF7A1779837D02C3
:100DC6007F501216A3E523FB7A00751002751110E9
:100DD6007D027F601213717BFF7A1779857D04E4AB
:060DE600FF1216A37F01BD
:010DEC0022E4
:1017DE00504C4541534520574149540050524553B2
:1017EE0053203120544F2053544F500053554343F0
:0417FE0045535300FC
:0B18EC00C100014F00014900014A004B
:10187200758902758C9B758A9BD2AFD2A9D28CD204
:0818820091D297D293D2922279
:03000B0002145884
:10145800C0E0C0F0C083C082C0D075D000C000C05A
:1014680001C002C003C004C005C006C007E54F7034
:1014780006854945854A46E54FC395455004D285BA
:101488008002C285E54FC395465004D2808002C2CF
:1014980080054FE54FC394644003754F0012120452
:1014A800BF0102C2A9D007D006D005D004D003D00E
:1014B80002D001D000D0D0D082D083D0F0D0E0329A
:10128400D2A91217B77BFF7A1779DE7D02E4FF1229
:1012940016A37BFF7A1779EA7D04E4FF1216A3D222
:1012A40080D2857D5F7F211215983091032097F3BA
:1012B40030910BC2857D5FE4FF12159880F2309760
:1012C4000BC280E4FD7F2112159880F2C280C28592
:1012D400C282C281C283C2841217B77BFF7A177994
:1012E400FA7D04E4FF1216A31218D11217B7D20024
:0712F400D2AAD2A8C2A92270
:1014C800D2A91217B77BFF7A1779DE7D04E4FF12E1
:1014D80016A3D280D2857DA17FE21215983093039E
:1014E8002092F330930BC2857DA1E4FF12159880FA
:1014F800F230920BC280E4FD7FE212159880F2C2AE
:1015080080C285C282C281C283C2841217B77BFFA0
:101518007A1779FA7D04E4FF1216A31218D112176C
:0A152800B7D296D295C200C2A922E4
:101598008F0B8D0CC3E50C6480941C4028D3E50C9C
:1015A800648094E4501FAF0CEF3395E0FE1218F8F6
:1015B8008F4AC3E50C648094805006C281D2828031
:1015C80004D281C282C3E50B6480941C4027D3E512
:1015D8000B648094E4501EAF0BEF3395E0FE1218B5
:1015E800F88F49C3E50B648094805005C284D28388
:0615F80022D284C283220E
:0E18C30075B0FFD2AFC2AAC2A8D28AD28822C4
:1018220030001A2095062096031214C81212FBE506
:0D1832003075F00A84C3940940031214C8F5
:01183F002286
:081904007F047E71DEFEDFFAB4
:01190C0022B8
:0D18D1007F0D7EF77D8EDDFEDEFADFF60076
:0118DE0022E7
:08190D007FF97E11DEFEDFFA16
:0119150022AF
:061916002C00410031002D
:10104D00E4FB7D027F101216607B017D027F201272
:10105D0016607B027D027F301216607B037D027F5E
:10106D00401216607B047D027F501216607B0A7D54
:10107D00067F181216607510017511107B037A002A
:10108D007D067F281213717BFF7A1979167D067FF5
:10109D00301216A37B417D067F381215327B057DFC
:1010AD00067F401216607B067D067F501216601279
:1010BD0018221212048F51E55164046009E5516440
:1010CD0003600302104DE551B40403120DEDE5511B
:0710DD00B40303120ECC2244
:1013E500E4FB7D027F101216607B017D027F2012D7
:1013F50016607B027D027F301216607B037D027FC3
:10140500401216607B047D027F501216607B0A7DB8
:10141500067F181216607510017511107B037A008E
:101425007D067F281213717BFF7A1979167D067F59
:10143500301216A37B417D067F381215327B057D60
:10144500067F401216607B067D067F50121660E40B
:03145500FEFF2275
:100DED001217B7E4F5511217B77B077D02E4FF1216
:100DFD0016607B097D027F101216607B08E4FDFFF3
:100E0D001216607B09E4FD7F101216607B0A7D06C9
:100E1D00E4FF1216607BFF7A1979187D067F101298
:100E2D0016A37B0D7D067F201216607B0E7D067F3F
:100E3D0030121660120CE6EF64016006120CE6BF6C
:100E4D0002F2120CE6EF640270377B0A7D06FF1288
:100E5D0016607BFF7A19791A7D067F101216A37B17
:100E6D000D7D067F201216607B0E7D067F301216DB
:100E7D0060E4F551E5516401603B1212048F51801D
:100E8D00F31212048F51120CE6E5516401600BE56B
:100E9D005164026005E551B404E7E551B401051252
:100EAD0012848011E551B402051214C88007E55172
:0F0EBD00B404028000E4F5511217B7E4FEFF22DF
:100ECC001217B7E4F5517B0AFDFF1216607510017D
:100EDC007511107B027A00E4FD7F101213717B11E7
:100EEC00E4FD7F201216607B03E4FD7F3012166058
:100EFC007B04E4FD7F401216607B0A7D02E4FF1246
:100F0C0016607510017511107B017A007D027F103F
:100F1C001213717B127D027F201216607B037D02FF
:100F2C007F301216607B047D027F401216607B0AB4
:100F3C007D067F181216607BFF7A1979187D067F63
:100F4C00281216A37B0D7D067F381216607B0E7D52
:100F5C00067F481216601212048F51E5516401602D
:100F6C000BE55164026005E551B404EAE551B401A6
:100F7C00051212848011E551B402051214C88007C1
:100F8C00E551B404028000E4F5511217B7E4FEFFFA
:010F9C002232
:0300000002117872
:0C117800787FE4F6D8FD7581510211BFAC
:1010E400BB010CE58229F582E5833AF583E02250C1
:1010F40006E92582F8E622BBFE06E92582F8E2220B
:0D110400E58229F582E5833AF583E4932224
:10111100EF8DF0A4A8F0CF8CF0A428CE8DF0A42EF2
:02112100FE22AC
:10112300BC000BBE0029EF8DF084FFADF022E4CCB0
:10113300F875F008EF2FFFEE33FEEC33FCEE9DEC79
:10114300984005FCEE9DFE0FD5F0E9E4CEFD22EDBF
:10115300F8F5F0EE8420D21CFEADF075F008EF2F09
:10116300FFED33FD4007985006D5F0F222C398FDFA
:051173000FD5F0EA2297
:0C18F800EE30E707C3E49FFFE49EFE22F1
:1011840002188AE493A3F8E493A34003F68001F2DF
:1011940008DFF48029E493A3F85407240CC8C3336C
:1011A400C4540F4420C8834004F456800146F6DF3B
:1011B400E4800B01020408102040809018ECE47EC7
:1011C400019360BCA3FF543F30E509541FFEE49330
:1011D400A360010ECF54C025E060A840B8E493A3F7
:1011E400FAE493A3F8E493A3C8C582C8CAC583CA22
:1011F400F0A3C8C582C8CAC583CADFE9DEE780BEDA
:0118F70000F0
:00000001FF
